{
  "contractName": "WavePortal",
  "abi": [
    {
      "inputs": [],
      "stateMutability": "payable",
      "type": "constructor"
    },
    {
      "anonymous": false,
      "inputs": [
        {
          "indexed": true,
          "internalType": "address",
          "name": "from",
          "type": "address"
        },
        {
          "indexed": false,
          "internalType": "uint256",
          "name": "timestamp",
          "type": "uint256"
        },
        {
          "indexed": false,
          "internalType": "string",
          "name": "message",
          "type": "string"
        }
      ],
      "name": "NewWave",
      "type": "event"
    },
    {
      "inputs": [
        {
          "internalType": "string",
          "name": "_message",
          "type": "string"
        }
      ],
      "name": "wave",
      "outputs": [],
      "stateMutability": "nonpayable",
      "type": "function"
    },
    {
      "inputs": [],
      "name": "getTotalWaves",
      "outputs": [
        {
          "internalType": "uint256",
          "name": "",
          "type": "uint256"
        }
      ],
      "stateMutability": "view",
      "type": "function"
    },
    {
      "inputs": [],
      "name": "getWaves",
      "outputs": [
        {
          "components": [
            {
              "internalType": "address",
              "name": "waver",
              "type": "address"
            },
            {
              "internalType": "string",
              "name": "message",
              "type": "string"
            },
            {
              "internalType": "uint256",
              "name": "timestamp",
              "type": "uint256"
            }
          ],
          "internalType": "struct WavePortal.Wave[]",
          "name": "",
          "type": "tuple[]"
        }
      ],
      "stateMutability": "view",
      "type": "function"
    },
    {
      "inputs": [],
      "name": "getBiggestWaver",
      "outputs": [
        {
          "components": [
            {
              "internalType": "address",
              "name": "wallet",
              "type": "address"
            },
            {
              "internalType": "uint256",
              "name": "waves",
              "type": "uint256"
            }
          ],
          "internalType": "struct WavePortal.BiggestWaver",
          "name": "",
          "type": "tuple"
        }
      ],
      "stateMutability": "view",
      "type": "function"
    }
  ],
  "bytecode": "0x60a0604052670de0b6b3a76400006080908152506040518060400160405280600073ffffffffffffffffffffffffffffffffffffffff1681526020016000815250600360008201518160000160006101000a81548173ffffffffffffffffffffffffffffffffffffffff021916908373ffffffffffffffffffffffffffffffffffffffff160217905550602082015181600101555050620000e06040518060400160405280601f81526020017f48656c6c6f20776f726c642066726f6d20536d617274436f6e74726163742100815250620000e660201b6200060e1760201c565b62000270565b6200018681604051602401620000fd91906200024c565b6040516020818303038152906040527f41304fac000000000000000000000000000000000000000000000000000000007bffffffffffffffffffffffffffffffffffffffffffffffffffffffff19166020820180517bffffffffffffffffffffffffffffffffffffffffffffffffffffffff83818316178352505050506200018960201b60201c565b50565b60008151905060006a636f6e736f6c652e6c6f679050602083016000808483855afa5050505050565b600081519050919050565b600082825260208201905092915050565b60005b83811015620001ee578082015181840152602081019050620001d1565b60008484015250505050565b6000601f19601f8301169050919050565b60006200021882620001b2565b620002248185620001bd565b935062000236818560208601620001ce565b6200024181620001fa565b840191505092915050565b600060208201905081810360008301526200026881846200020b565b905092915050565b608051611001620002936000396000818161038e015261045001526110016000f3fe608060405234801561001057600080fd5b506004361061004c5760003560e01c806303aa885f14610051578063449d46c01461006f5780639a2cdc081461008b578063a9d42f7e146100a9575b600080fd5b6100596100c7565b6040516100669190610789565b60405180910390f35b610089600480360381019061008491906108fe565b610141565b005b6100936104b3565b6040516100a09190610956565b60405180910390f35b6100b16104bd565b6040516100be9190610b02565b60405180910390f35b6100cf6106d0565b60036040518060400160405290816000820160009054906101000a900473ffffffffffffffffffffffffffffffffffffffff1673ffffffffffffffffffffffffffffffffffffffff1673ffffffffffffffffffffffffffffffffffffffff168152602001600182015481525050905090565b60018060008282546101539190610b53565b925050819055506001600260003373ffffffffffffffffffffffffffffffffffffffff1673ffffffffffffffffffffffffffffffffffffffff16815260200190815260200160002060008282546101aa9190610b53565b92505081905550600560405180606001604052803373ffffffffffffffffffffffffffffffffffffffff16815260200183815260200142815250908060018154018082558091505060019003906000526020600020906003020160009091909190915060008201518160000160006101000a81548173ffffffffffffffffffffffffffffffffffffffff021916908373ffffffffffffffffffffffffffffffffffffffff16021790555060208201518160010190816102699190610d93565b50604082015181600201555050600360010154600260003373ffffffffffffffffffffffffffffffffffffffff1673ffffffffffffffffffffffffffffffffffffffff1681526020019081526020016000205411156103fd5733600360000160006101000a81548173ffffffffffffffffffffffffffffffffffffffff021916908373ffffffffffffffffffffffffffffffffffffffff160217905550600260003373ffffffffffffffffffffffffffffffffffffffff1673ffffffffffffffffffffffffffffffffffffffff1681526020019081526020016000205460036001018190555060008054906101000a900473ffffffffffffffffffffffffffffffffffffffff1673ffffffffffffffffffffffffffffffffffffffff166340c10f19337f00000000000000000000000000000000000000000000000000000000000000006040518363ffffffff1660e01b81526004016103ca929190610e74565b600060405180830381600087803b1580156103e457600080fd5b505af11580156103f8573d6000803e3d6000fd5b505050505b3373ffffffffffffffffffffffffffffffffffffffff167f5f7e16dc676677766a70e9c5628aa6c54ddb8b6e5188e2ae1e1f17f1ffbea7164283604051610445929190610ee7565b60405180910390a2477f000000000000000000000000000000000000000000000000000000000000000010156104b0576040517f08c379a00000000000000000000000000000000000000000000000000000000081526004016104a790610f89565b60405180910390fd5b50565b6000600154905090565b60606005805480602002602001604051908101604052809291908181526020016000905b8282101561060557838290600052602060002090600302016040518060600160405290816000820160009054906101000a900473ffffffffffffffffffffffffffffffffffffffff1673ffffffffffffffffffffffffffffffffffffffff1673ffffffffffffffffffffffffffffffffffffffff16815260200160018201805461056a90610bb6565b80601f016020809104026020016040519081016040528092919081815260200182805461059690610bb6565b80156105e35780601f106105b8576101008083540402835291602001916105e3565b820191906000526020600020905b8154815290600101906020018083116105c657829003601f168201915b50505050508152602001600282015481525050815260200190600101906104e1565b50505050905090565b6106a4816040516024016106229190610fa9565b6040516020818303038152906040527f41304fac000000000000000000000000000000000000000000000000000000007bffffffffffffffffffffffffffffffffffffffffffffffffffffffff19166020820180517bffffffffffffffffffffffffffffffffffffffffffffffffffffffff83818316178352505050506106a7565b50565b60008151905060006a636f6e736f6c652e6c6f679050602083016000808483855afa5050505050565b6040518060400160405280600073ffffffffffffffffffffffffffffffffffffffff168152602001600081525090565b600073ffffffffffffffffffffffffffffffffffffffff82169050919050565b600061072b82610700565b9050919050565b61073b81610720565b82525050565b6000819050919050565b61075481610741565b82525050565b6040820160008201516107706000850182610732565b506020820151610783602085018261074b565b50505050565b600060408201905061079e600083018461075a565b92915050565b6000604051905090565b600080fd5b600080fd5b600080fd5b600080fd5b6000601f19601f8301169050919050565b7f4e487b7100000000000000000000000000000000000000000000000000000000600052604160045260246000fd5b61080b826107c2565b810181811067ffffffffffffffff8211171561082a576108296107d3565b5b80604052505050565b600061083d6107a4565b90506108498282610802565b919050565b600067ffffffffffffffff821115610869576108686107d3565b5b610872826107c2565b9050602081019050919050565b82818337600083830152505050565b60006108a161089c8461084e565b610833565b9050828152602081018484840111156108bd576108bc6107bd565b5b6108c884828561087f565b509392505050565b600082601f8301126108e5576108e46107b8565b5b81356108f584826020860161088e565b91505092915050565b600060208284031215610914576109136107ae565b5b600082013567ffffffffffffffff811115610932576109316107b3565b5b61093e848285016108d0565b91505092915050565b61095081610741565b82525050565b600060208201905061096b6000830184610947565b92915050565b600081519050919050565b600082825260208201905092915050565b6000819050602082019050919050565b600081519050919050565b600082825260208201905092915050565b60005b838110156109d75780820151818401526020810190506109bc565b60008484015250505050565b60006109ee8261099d565b6109f881856109a8565b9350610a088185602086016109b9565b610a11816107c2565b840191505092915050565b6000606083016000830151610a346000860182610732565b5060208301518482036020860152610a4c82826109e3565b9150506040830151610a61604086018261074b565b508091505092915050565b6000610a788383610a1c565b905092915050565b6000602082019050919050565b6000610a9882610971565b610aa2818561097c565b935083602082028501610ab48561098d565b8060005b85811015610af05784840389528151610ad18582610a6c565b9450610adc83610a80565b925060208a01995050600181019050610ab8565b50829750879550505050505092915050565b60006020820190508181036000830152610b1c8184610a8d565b905092915050565b7f4e487b7100000000000000000000000000000000000000000000000000000000600052601160045260246000fd5b6000610b5e82610741565b9150610b6983610741565b9250828201905080821115610b8157610b80610b24565b5b92915050565b7f4e487b7100000000000000000000000000000000000000000000000000000000600052602260045260246000fd5b60006002820490506001821680610bce57607f821691505b602082108103610be157610be0610b87565b5b50919050565b60008190508160005260206000209050919050565b60006020601f8301049050919050565b600082821b905092915050565b600060088302610c497fffffffffffffffffffffffffffffffffffffffffffffffffffffffffffffffff82610c0c565b610c538683610c0c565b95508019841693508086168417925050509392505050565b6000819050919050565b6000610c90610c8b610c8684610741565b610c6b565b610741565b9050919050565b6000819050919050565b610caa83610c75565b610cbe610cb682610c97565b848454610c19565b825550505050565b600090565b610cd3610cc6565b610cde818484610ca1565b505050565b5b81811015610d0257610cf7600082610ccb565b600181019050610ce4565b5050565b601f821115610d4757610d1881610be7565b610d2184610bfc565b81016020851015610d30578190505b610d44610d3c85610bfc565b830182610ce3565b50505b505050565b600082821c905092915050565b6000610d6a60001984600802610d4c565b1980831691505092915050565b6000610d838383610d59565b9150826002028217905092915050565b610d9c8261099d565b67ffffffffffffffff811115610db557610db46107d3565b5b610dbf8254610bb6565b610dca828285610d06565b600060209050601f831160018114610dfd5760008415610deb578287015190505b610df58582610d77565b865550610e5d565b601f198416610e0b86610be7565b60005b82811015610e3357848901518255600182019150602085019450602081019050610e0e565b86831015610e505784890151610e4c601f891682610d59565b8355505b6001600288020188555050505b505050505050565b610e6e81610720565b82525050565b6000604082019050610e896000830185610e65565b610e966020830184610947565b9392505050565b600082825260208201905092915050565b6000610eb98261099d565b610ec38185610e9d565b9350610ed38185602086016109b9565b610edc816107c2565b840191505092915050565b6000604082019050610efc6000830185610947565b8181036020830152610f0e8184610eae565b90509392505050565b7f547279696e6720746f207769746864726177206d6f7265206d6f6e657920746860008201527f616e2074686520636f6e7472616374206861732e000000000000000000000000602082015250565b6000610f73603483610e9d565b9150610f7e82610f17565b604082019050919050565b60006020820190508181036000830152610fa281610f66565b9050919050565b60006020820190508181036000830152610fc38184610eae565b90509291505056fea26469706673582212205848f6f75e47d9afe95764985eb7f53c83144980e129936bca18698299706b9864736f6c63430008100033",
  "immutableReferences": {
    "10471": [
      {
        "length": 32,
        "start": 910
      },
      {
        "length": 32,
        "start": 1104
      }
    ]
  },
  "source": "// SPDX-License-Identifier: UNLICENSED\n\npragma solidity ^0.8.0;\n\nimport \"hardhat/console.sol\";\nimport \"@openzeppelin/contracts/token/ERC20/ERC20.sol\";\nimport \"@openzeppelin/contracts/token/ERC20/IERC20.sol\";\nimport \"./K42Coin.sol\";\n\ncontract WavePortal {\n    K42Coin private k42Coin;\n\n    struct Wave {\n        address waver;\n        string message;\n        uint256 timestamp;\n    }\n\n    struct BiggestWaver {\n        address wallet;\n        uint256 waves;\n    }\n    uint256 private immutable amount = 1 * 10**18;\n    uint256 private totalWaves;\n    mapping(address => uint256) private walletWaveMap;\n\n    event NewWave(address indexed from, uint256 timestamp, string message);\n\n    BiggestWaver private biggestWaver = BiggestWaver(address(0), 0);\n    Wave[] private waves;\n\n    constructor() payable {\n        console.log(\"Hello world from SmartContract!\");\n    }\n\n    function wave(string memory _message) public {\n        totalWaves += 1;\n        walletWaveMap[msg.sender] += 1;\n\n        waves.push(Wave(msg.sender, _message, block.timestamp));\n\n        if (walletWaveMap[msg.sender] > biggestWaver.waves) {\n            biggestWaver.wallet = msg.sender;\n            biggestWaver.waves = walletWaveMap[msg.sender];\n            k42Coin.mint(msg.sender, amount);\n        }\n\n        emit NewWave(msg.sender, block.timestamp, _message);\n\n        require(\n            amount >= address(this).balance,\n            \"Trying to withdraw more money than the contract has.\"\n        );\n    }\n\n    function getTotalWaves() public view returns (uint256) {\n        return totalWaves;\n    }\n\n    function getWaves() public view returns (Wave[] memory) {\n        return waves;\n    }\n\n    function getBiggestWaver() public view returns (BiggestWaver memory) {\n        return biggestWaver;\n    }\n}\n",
  "sourcePath": "/Users/tomas.centeno/Desktop/wave-portal-v2/contracts/WavePortal.sol",
  "compiler": {
    "name": "solc",
    "version": "0.8.16+commit.07a7930e.Emscripten.clang"
  },
  "schemaVersion": "3.4.9",
  "updatedAt": "2022-08-19T09:17:58.878Z",
  "devdoc": {
    "kind": "dev",
    "methods": {},
    "version": 1
  },
  "userdoc": {
    "kind": "user",
    "methods": {},
    "version": 1
  }
}