{
  "_format": "hh-sol-artifact-1",
  "contractName": "WavePortal",
  "sourceName": "contracts/WavePortal.sol",
  "abi": [
    {
      "inputs": [
        {
          "internalType": "contract K42",
          "name": "token",
          "type": "address"
        }
      ],
      "stateMutability": "payable",
      "type": "constructor"
    },
    {
      "anonymous": false,
      "inputs": [
        {
          "indexed": true,
          "internalType": "address",
          "name": "from",
          "type": "address"
        },
        {
          "indexed": false,
          "internalType": "uint256",
          "name": "timestamp",
          "type": "uint256"
        },
        {
          "indexed": false,
          "internalType": "string",
          "name": "message",
          "type": "string"
        }
      ],
      "name": "NewWave",
      "type": "event"
    },
    {
      "inputs": [],
      "name": "getBiggestWaver",
      "outputs": [
        {
          "components": [
            {
              "internalType": "address",
              "name": "wallet",
              "type": "address"
            },
            {
              "internalType": "uint256",
              "name": "waves",
              "type": "uint256"
            }
          ],
          "internalType": "struct WavePortal.BiggestWaver",
          "name": "",
          "type": "tuple"
        }
      ],
      "stateMutability": "view",
      "type": "function"
    },
    {
      "inputs": [],
      "name": "getTotalWaves",
      "outputs": [
        {
          "internalType": "uint256",
          "name": "",
          "type": "uint256"
        }
      ],
      "stateMutability": "view",
      "type": "function"
    },
    {
      "inputs": [],
      "name": "getWaves",
      "outputs": [
        {
          "components": [
            {
              "internalType": "address",
              "name": "waver",
              "type": "address"
            },
            {
              "internalType": "string",
              "name": "message",
              "type": "string"
            },
            {
              "internalType": "uint256",
              "name": "timestamp",
              "type": "uint256"
            }
          ],
          "internalType": "struct WavePortal.Wave[]",
          "name": "",
          "type": "tuple[]"
        }
      ],
      "stateMutability": "view",
      "type": "function"
    },
    {
      "inputs": [
        {
          "internalType": "string",
          "name": "_message",
          "type": "string"
        }
      ],
      "name": "wave",
      "outputs": [],
      "stateMutability": "nonpayable",
      "type": "function"
    }
  ],
  "bytecode": "0x60a0604052670de0b6b3a76400006080908152506040518060400160405280600073ffffffffffffffffffffffffffffffffffffffff1681526020016000815250600460008201518160000160006101000a81548173ffffffffffffffffffffffffffffffffffffffff021916908373ffffffffffffffffffffffffffffffffffffffff160217905550602082015181600101555050604051620010423803806200104283398181016040528101906100b891906101b4565b33600160006101000a81548173ffffffffffffffffffffffffffffffffffffffff021916908373ffffffffffffffffffffffffffffffffffffffff160217905550806000806101000a81548173ffffffffffffffffffffffffffffffffffffffff021916908373ffffffffffffffffffffffffffffffffffffffff160217905550506101e1565b600080fd5b600073ffffffffffffffffffffffffffffffffffffffff82169050919050565b600061016f82610144565b9050919050565b600061018182610164565b9050919050565b61019181610176565b811461019c57600080fd5b50565b6000815190506101ae81610188565b92915050565b6000602082840312156101ca576101c961013f565b5b60006101d88482850161019f565b91505092915050565b608051610e3e620002046000396000818161044301526105050152610e3e6000f3fe608060405234801561001057600080fd5b506004361061004c5760003560e01c806303aa885f14610051578063449d46c01461006f5780639a2cdc081461008b578063a9d42f7e146100a9575b600080fd5b6100596100c7565b604051610066919061081f565b60405180910390f35b61008960048036038101906100849190610994565b610141565b005b610093610568565b6040516100a091906109ec565b60405180910390f35b6100b1610572565b6040516100be9190610ba1565b60405180910390f35b6100cf6106c3565b60046040518060400160405290816000820160009054906101000a900473ffffffffffffffffffffffffffffffffffffffff1673ffffffffffffffffffffffffffffffffffffffff1673ffffffffffffffffffffffffffffffffffffffff168152602001600182015481525050905090565b6001600260008282546101549190610bf2565b925050819055506001600360003373ffffffffffffffffffffffffffffffffffffffff1673ffffffffffffffffffffffffffffffffffffffff16815260200190815260200160002060008282546101ab9190610bf2565b92505081905550600660405180606001604052803373ffffffffffffffffffffffffffffffffffffffff16815260200183815260200142815250908060018154018082558091505060019003906000526020600020906003020160009091909190915060008201518160000160006101000a81548173ffffffffffffffffffffffffffffffffffffffff021916908373ffffffffffffffffffffffffffffffffffffffff16021790555060208201518160010190805190602001906102719291906106f3565b50604082015181600201555050600460010154600360003373ffffffffffffffffffffffffffffffffffffffff1673ffffffffffffffffffffffffffffffffffffffff1681526020019081526020016000205411156104b25733600460000160006101000a81548173ffffffffffffffffffffffffffffffffffffffff021916908373ffffffffffffffffffffffffffffffffffffffff160217905550600360003373ffffffffffffffffffffffffffffffffffffffff1673ffffffffffffffffffffffffffffffffffffffff1681526020019081526020016000205460046001018190555060008054906101000a900473ffffffffffffffffffffffffffffffffffffffff1673ffffffffffffffffffffffffffffffffffffffff16633dd1eb61600160009054906101000a900473ffffffffffffffffffffffffffffffffffffffff166040518263ffffffff1660e01b81526004016103d29190610c57565b600060405180830381600087803b1580156103ec57600080fd5b505af1158015610400573d6000803e3d6000fd5b5050505060008054906101000a900473ffffffffffffffffffffffffffffffffffffffff1673ffffffffffffffffffffffffffffffffffffffff166340c10f19337f00000000000000000000000000000000000000000000000000000000000000006040518363ffffffff1660e01b815260040161047f929190610c72565b600060405180830381600087803b15801561049957600080fd5b505af11580156104ad573d6000803e3d6000fd5b505050505b3373ffffffffffffffffffffffffffffffffffffffff167f5f7e16dc676677766a70e9c5628aa6c54ddb8b6e5188e2ae1e1f17f1ffbea71642836040516104fa929190610ce5565b60405180910390a2477f00000000000000000000000000000000000000000000000000000000000000001015610565576040517f08c379a000000000000000000000000000000000000000000000000000000000815260040161055c90610d87565b60405180910390fd5b50565b6000600254905090565b60606006805480602002602001604051908101604052809291908181526020016000905b828210156106ba57838290600052602060002090600302016040518060600160405290816000820160009054906101000a900473ffffffffffffffffffffffffffffffffffffffff1673ffffffffffffffffffffffffffffffffffffffff1673ffffffffffffffffffffffffffffffffffffffff16815260200160018201805461061f90610dd6565b80601f016020809104026020016040519081016040528092919081815260200182805461064b90610dd6565b80156106985780601f1061066d57610100808354040283529160200191610698565b820191906000526020600020905b81548152906001019060200180831161067b57829003601f168201915b5050505050815260200160028201548152505081526020019060010190610596565b50505050905090565b6040518060400160405280600073ffffffffffffffffffffffffffffffffffffffff168152602001600081525090565b8280546106ff90610dd6565b90600052602060002090601f0160209004810192826107215760008555610768565b82601f1061073a57805160ff1916838001178555610768565b82800160010185558215610768579182015b8281111561076757825182559160200191906001019061074c565b5b5090506107759190610779565b5090565b5b8082111561079257600081600090555060010161077a565b5090565b600073ffffffffffffffffffffffffffffffffffffffff82169050919050565b60006107c182610796565b9050919050565b6107d1816107b6565b82525050565b6000819050919050565b6107ea816107d7565b82525050565b60408201600082015161080660008501826107c8565b50602082015161081960208501826107e1565b50505050565b600060408201905061083460008301846107f0565b92915050565b6000604051905090565b600080fd5b600080fd5b600080fd5b600080fd5b6000601f19601f8301169050919050565b7f4e487b7100000000000000000000000000000000000000000000000000000000600052604160045260246000fd5b6108a182610858565b810181811067ffffffffffffffff821117156108c0576108bf610869565b5b80604052505050565b60006108d361083a565b90506108df8282610898565b919050565b600067ffffffffffffffff8211156108ff576108fe610869565b5b61090882610858565b9050602081019050919050565b82818337600083830152505050565b6000610937610932846108e4565b6108c9565b90508281526020810184848401111561095357610952610853565b5b61095e848285610915565b509392505050565b600082601f83011261097b5761097a61084e565b5b813561098b848260208601610924565b91505092915050565b6000602082840312156109aa576109a9610844565b5b600082013567ffffffffffffffff8111156109c8576109c7610849565b5b6109d484828501610966565b91505092915050565b6109e6816107d7565b82525050565b6000602082019050610a0160008301846109dd565b92915050565b600081519050919050565b600082825260208201905092915050565b6000819050602082019050919050565b600081519050919050565b600082825260208201905092915050565b60005b83811015610a6d578082015181840152602081019050610a52565b83811115610a7c576000848401525b50505050565b6000610a8d82610a33565b610a978185610a3e565b9350610aa7818560208601610a4f565b610ab081610858565b840191505092915050565b6000606083016000830151610ad360008601826107c8565b5060208301518482036020860152610aeb8282610a82565b9150506040830151610b0060408601826107e1565b508091505092915050565b6000610b178383610abb565b905092915050565b6000602082019050919050565b6000610b3782610a07565b610b418185610a12565b935083602082028501610b5385610a23565b8060005b85811015610b8f5784840389528151610b708582610b0b565b9450610b7b83610b1f565b925060208a01995050600181019050610b57565b50829750879550505050505092915050565b60006020820190508181036000830152610bbb8184610b2c565b905092915050565b7f4e487b7100000000000000000000000000000000000000000000000000000000600052601160045260246000fd5b6000610bfd826107d7565b9150610c08836107d7565b9250827fffffffffffffffffffffffffffffffffffffffffffffffffffffffffffffffff03821115610c3d57610c3c610bc3565b5b828201905092915050565b610c51816107b6565b82525050565b6000602082019050610c6c6000830184610c48565b92915050565b6000604082019050610c876000830185610c48565b610c9460208301846109dd565b9392505050565b600082825260208201905092915050565b6000610cb782610a33565b610cc18185610c9b565b9350610cd1818560208601610a4f565b610cda81610858565b840191505092915050565b6000604082019050610cfa60008301856109dd565b8181036020830152610d0c8184610cac565b90509392505050565b7f547279696e6720746f207769746864726177206d6f7265206d6f6e657920746860008201527f616e2074686520636f6e7472616374206861732e000000000000000000000000602082015250565b6000610d71603483610c9b565b9150610d7c82610d15565b604082019050919050565b60006020820190508181036000830152610da081610d64565b9050919050565b7f4e487b7100000000000000000000000000000000000000000000000000000000600052602260045260246000fd5b60006002820490506001821680610dee57607f821691505b60208210811415610e0257610e01610da7565b5b5091905056fea2646970667358221220cd14c33d6e0e88ca55e2b812e9c2546fc1570102e0dbcb427172d73589b06f1464736f6c63430008090033",
  "linkReferences": {},
  "deployedLinkReferences": {}
}